:020000021000EC
:100000000B600006F1A013000000130000000100C7
:100010009302000003A50200630805000145930256
:10002000000023A0A20051A805459302000023A0D0
:10003000A200197106C00AC20EC412C616C81ACA96
:100040001ECC22CE26D02AD22ED432D636D83ADAB8
:100050003EDC42DEC6C0CAC2CEC4D2C6D6C8DACAE8
:10006000DECCE2CEE6D0EAD2EED4F2D6F6D8FADA98
:10007000FEDC0BC50000EF00E01682401241A241F9
:100080003242C2425243E243724482541255A25554
:100090003256C2565257E257725886481649A649F8
:1000A000364AC64A564BE64B764C865C165DA65DD4
:1000B000365EC65E565FE65F09610B000004930280
:1000C000F0FF0BE00206828081420BE00206828094
:1000D000930000009301000013020000930200004F
:1000E00013030000930300001304000093040000B6
:1000F000130500009305000013060000930600009E
:100100001307000093070000130800009308000085
:100110001309000093090000130A0000930A00006D
:10012000130B0000930B0000130C0000930C000055
:10013000130D0000930D0000130E0000930E00003D
:10014000130F0000930F000017050000130505189A
:10015000930500001306400063D8C500144194C104
:1001600011059105E3CCC5FE130540009305C000C1
:100170006357B500232005001105E34DB5FE55205A
:1001800001A00000000000000000B7071000C8D365
:10019000370710005C438D83858BEDDF4853137563
:1001A000F50F8280411106C622C426C23704100012
:1001B000835784027D777D17F98F2314F402AA8474
:1001C00003459000D9374945C93726857D3F835778
:1001D00084020567D98F2314F402B240224492446A
:1001E000410182809377050299C7B7071000130772
:1001F0000002D8CB82809377050499C7B707100017
:1002000013070004D8CB82809377050899C7B707F6
:10021000100013070008D8CB8280B7071000C8CBA6
:100220008280011106CE22CC26CA4AC84EC63709A2
:1002300010008357890285697D77B3E7370123145E
:10024000F902835789021305000437440200F98F2D
:1002500093E787002314F90283470900130700047A
:10026000B7041000DD9B2300F900A304E0008357CE
:1002700089027D777D17F98F2314F90239370145FB
:10028000293701451937835789021304E482B3E7FC
:1002900037012314F902253501452937353523AABD
:1002A0000400A28763840700FD17EDBF093D130515
:1002B000F00FCD3D113D9307F00FDCC8A28763849A
:0802C0000700FD17EDBFC1BFEF
:0402C8000000000032
:0400000310000000E9
:00000001FF
