:020000021000EC
:100000000B600006F1A013000000130000000100C7
:100010009302000003A50200630805000145930256
:10002000000023A0A20051A805459302000023A0D0
:10003000A200197106C00AC20EC412C616C81ACA96
:100040001ECC22CE26D02AD22ED432D636D83ADAB8
:100050003EDC42DEC6C0CAC2CEC4D2C6D6C8DACAE8
:10006000DECCE2CEE6D0EAD2EED4F2D6F6D8FADA98
:10007000FEDC0BC50000EF00E01282401241A241FD
:100080003242C2425243E243724482541255A25554
:100090003256C2565257E257725886481649A649F8
:1000A000364AC64A564BE64B764C865C165DA65DD4
:1000B000365EC65E565FE65F09610B000004930280
:1000C000F0FF0BE00206828081420BE00206828094
:1000D000930000009301000013020000930200004F
:1000E00013030000930300001304000093040000B6
:1000F000130500009305000013060000930600009E
:100100001307000093070000130800009308000085
:100110001309000093090000130A0000930A00006D
:10012000130B0000930B0000130C0000930C000055
:10013000130D0000930D0000130E0000930E00003D
:10014000130F0000930F000017050000130585131F
:10015000930500001306400063D8C500144194C104
:1001600011059105E3CCC5FE130540009305C000C1
:100170006357B500232005001105E34DB5FE95201A
:1001800001A00000000000000000B7071000C8D365
:10019000370710005C438D83858BEDDF4853137563
:1001A000F50F82809377050299C7B70710001307F0
:1001B0000002D8CB82809377050499C7B707100057
:1001C00013070004D8CB82809377050899C7B70737
:1001D000100013070008D8CB8280B7071000C8CBE7
:1001E00082800111B707100022CC26CA4AC84EC629
:1001F00052C456C206CE03D787028566558F239414
:10020000E70203D78702FD76FD79758F13678700B4
:100210002394E70203C7070049699304F00F5D9B2D
:100220002380E70093070004A304F00037041000C4
:10023000FD19856A130979C11C4C858BF5DF4135A1
:1002400083578402B3F737012314F4020345900067
:100250002D3F49451D3F26850D3F83578402B3E757
:1002600057012314F4028D351387140044C8CA873C
:100270009374F70F63840700FD17EDBF75BF00008F
:04028000000000007A
:0400000310000000E9
:00000001FF
