:020000021000EC
:100000000B6000066DA81300000013000000010043
:10001000197106C00AC20EC412C616C81ACA1ECC6E
:1000200022CE26D02AD22ED432D636D83ADA3EDCA8
:1000300042DEC6C0CAC2CEC4D2C6D6C8DACADECC78
:10004000E2CEE6D0EAD2EED4F2D6F6D8FADAFEDC88
:100050000BC50000EF00001882401241A24132425D
:10006000C2425243E243724482541255A255325660
:10007000C2565257E257725886481649A649364A20
:10008000C64A564BE64B764C865C165DA65D365EE0
:10009000C65E565FE65F09610B000004411116C69B
:1000A0009302F0FF0BE00206B2424101828041114F
:1000B00016C681420BE00206B242410182809300E3
:1000C00000009301000013020000930200001303DC
:1000D00000009303000013040000930400001305C4
:1000E00000009305000013060000930600001307AC
:1000F0000000930700001308000093080000130994
:10010000000093090000130A0000930A0000130B7B
:100110000000930B0000130C0000930C0000130D63
:100120000000930D0000130E0000930E0000130F4B
:100130000000930F000017050000130565259305C7
:1001400000001306400063D8C500144194C1110596
:100150009105E3CCC5FE130540009305800163576C
:10016000B500232005001105E34DB5FEE92801A0E7
:10017000000000000000834750019D4663E4F60440
:10018000834790009305C00093F7F70F138517007E
:100190001375F50FA304A000AE9783C70700B7053A
:1001A000100093F7F70FDCD18347900063F4F6005B
:1001B000A304000083475001850793F7F70FA30AB4
:1001C000F00082803707100083470700DD9B230083
:1001D000F7008280370710001C438D83858B9DEFCD
:1001E000370710001C439183858B9DEF3707100064
:1001F0001C439583858BA1E3370710001C4399832B
:10020000858B89E7B7071000C8CB82805443998259
:10021000858AE399F6FE8D475CCB828058430D8337
:10022000058BE31FF7FA81BF54439182858AE39FD0
:10023000F6FA54CB828054439582858AE39EF6FA7F
:1002400089475CCB8280B707100003C7070085662B
:100250007D765D9B2380E70003D787024111558F90
:100260002394E70203D78702718F136787002394D3
:10027000E702230A0000A30400002147A30AE000CC
:1002800003C707001146136707012380E70003C770
:100290000700136707022380E70003C707001367FF
:1002A00007042380E70003C70700136707F82380CC
:1002B000E700A3030100834771006369F6028347E7
:1002C0007100034771000C08938707FA93F7F70F43
:1002D0002E97230CF7FE83477100850793F7F70FDE
:1002E000A303F10083477100E37BF6FC1308C00011
:1002F0009145370710009D48A30301008347710013
:10030000E3ECF5FE834771001008B29703C687FF40
:100310001376F60F8347500193F7F70FE5DF1C4381
:100320008D83858B85E750D38347070093E787004C
:100330002300F70083477100850793F7F70FA303A6
:10034000F10083477100E3E9F5FA6DBF83470700C9
:10035000DD9B2300F7008347400193F7F70F1383DA
:1003600017001373F30F230A6000C2972380C7009E
:100370008347400163F4F800230A000083475001DB
:0C038000FD1793F7F70FA30AF00079BFF8
:04038C00000000006D
:0400000310000000E9
:00000001FF
