:020000021000EC
:100000000B6000066DA81300000013000000010043
:100010009302000003A50200630805000145930256
:10002000000023A0A20051A805459302000023A0D0
:10003000A200197106C00AC20EC412C616C81ACA96
:100040001ECC22CE26D02AD22ED432D636D83ADAB8
:100050003EDC42DEC6C0CAC2CEC4D2C6D6C8DACAE8
:10006000DECCE2CEE6D0EAD2EED4F2D6F6D8FADA98
:10007000FEDC0BC50000EF00401082401241A2419F
:100080003242C2425243E243724482541255A25554
:100090003256C2565257E257725886481649A649F8
:1000A000364AC64A564BE64B764C865C165DA65DD4
:1000B000365EC65E565FE65F09610B000004930082
:1000C00000009301000013020000930200001303DC
:1000D00000009303000013040000930400001305C4
:1000E00000009305000013060000930600001307AC
:1000F0000000930700001308000093080000130994
:10010000000093090000130A0000930A0000130B7B
:100110000000930B0000130C0000930C0000130D63
:100120000000930D0000130E0000930E0000130F4B
:100130000000930F0000170500001305250E93051E
:1001400000001306400063D8C500144194C1110596
:100150009105E3CCC5FE13054000930540006357AD
:10016000B500232005001105E34DB5FE912001A047
:10017000000000000000000000009377050299C70E
:10018000B707100013070002D8CB828093770504CD
:1001900099C7B707100013070004D8CB82801375E6
:1001A000050811C5B707100013070008D8CB8280D7
:1001B000370710008357870285667D76D58F231415
:1001C000F70283578702FD759306000AF18F93E7C4
:1001D00057002314F70203460700B7071000FD1568
:1001E0005D9A2300C700056503D787026D8F2394AE
:1001F000E702D4D3D8430D83058B6DDFD85303D6E4
:10020000870285061377F70F498E2394C702D8CB50
:0802100093F6F60FD1BF0000C8
:0402180000000000E2
:0400000310000000E9
:00000001FF
