:020000021000EC
:100000000B6000066DA81300000013000000010043
:100010009302000003A50200630805000145930256
:10002000000023A0A20051A805459302000023A0D0
:10003000A200197106C00AC20EC412C616C81ACA96
:100040001ECC22CE26D02AD22ED432D636D83ADAB8
:100050003EDC42DEC6C0CAC2CEC4D2C6D6C8DACAE8
:10006000DECCE2CEE6D0EAD2EED4F2D6F6D8FADA98
:10007000FEDC0BC50000EF00E01682401241A241F9
:100080003242C2425243E243724482541255A25554
:100090003256C2565257E257725886481649A649F8
:1000A000364AC64A564BE64B764C865C165DA65DD4
:1000B000365EC65E565FE65F09610B000004930082
:1000C00000009301000013020000930200001303DC
:1000D00000009303000013040000930400001305C4
:1000E00000009305000013060000930600001307AC
:1000F0000000930700001308000093080000130994
:10010000000093090000130A0000930A0000130B7B
:100110000000930B0000130C0000930C0000130D63
:100120000000930D0000130E0000930E0000130F4B
:100130000000930F0000170500001305E515930557
:1001400000001306400063D8C500144194C1110596
:100150009105E3CCC5FE130540009305C00063572D
:10016000B500232005001105E34DB5FE5D2801A073
:1001700000000000000000000000B707100041115F
:10018000C8D3370710005C438D83858BA307F1002C
:100190008347F10093F7F70FFDD7485341011375DB
:1001A000F50F8280411106C622C426C23704100012
:1001B000835784027D777D17F98F2314F402AA8474
:1001C000034590005D3F49454D3F26857D37835768
:1001D00084020567D98F2314F402B240224492446A
:1001E000410182809377050299C7B7071000130772
:1001F0000002D8CB82809377050499C7B707100017
:1002000013070004D8CB82809377050899C7B707F6
:10021000100013070008D8CB8280B7071000C8CBA6
:100220008280011106CE22CC26CA370410008357E3
:10023000840285647D77C58F2314F402835784027A
:1002400013050004F98F93E787002314F402834712
:10025000040013070004DD9B2300F400A304E00066
:10026000835784027D777D17F98F2314F402313789
:10027000014521370145113783578402C58F231467
:10028000F402A30701001305F00F293F0145193FB0
:04029000DDBF0000CE
:040294000000000066
:0400000310000000E9
:00000001FF
