:020000021000EC
:100000000B6000066DA81300000013000000010043
:10001000197106C00AC20EC412C616C81ACA1ECC6E
:1000200022CE26D02AD22ED432D636D83ADA3EDCA8
:1000300042DEC6C0CAC2CEC4D2C6D6C8DACADECC78
:10004000E2CEE6D0EAD2EED4F2D6F6D8FADAFEDC88
:100050000BC50000EF00C01382401241A2413242A2
:10006000C2425243E243724482541255A255325660
:10007000C2565257E257725886481649A649364A20
:10008000C64A564BE64B764C865C165DA65D365EE0
:10009000C65E565FE65F09610B000004411116C69B
:1000A0009302F0FF0BE00206B2424101828041114F
:1000B00016C681420BE00206B242410182809300E3
:1000C00000009301000013020000930200001303DC
:1000D00000009303000013040000930400001305C4
:1000E00000009305000013060000930600001307AC
:1000F0000000930700001308000093080000130994
:10010000000093090000130A0000930A0000130B7B
:100110000000930B0000130C0000930C0000130D63
:100120000000930D0000130E0000930E0000130F4B
:100130000000930F0000170500001305E51C930550
:1001400000001306400063D8C500144194C1110596
:100150009105E3CCC5FE130540009305C00163572C
:10016000B500232005001105E34DB5FEF92001A0DF
:10017000000000000000B7071000C8D337071000C8
:100180005C438D83858BEDDF48531375F50F8280BB
:10019000370710001C438D83858B9DE39377050201
:1001A00091EB93770504BDC7B70710001307000450
:1001B000D8CB8280B707100013070002D8CB82800B
:1001C00054438D82858AE39BF6FC834790011D464C
:1001D000636FF604834780011305000193F7F70F5F
:1001E000138817001378F80F230C0001AA9783C710
:1001F000070093F7F70F5CD3834780016374F60021
:10020000230C000083479001850793F7F70FA30C99
:10021000F00082809377050899C7B707100013078D
:100220000008D8CB8280B7071000C8CB82808347F4
:100230000700DD9B2300F7008280B707100003C78B
:100240000700397122DC26DA52D456D25AD05ECE5B
:1002500006DE4AD84ED65D9B2380E70003D787028F
:100260008566558F2394E70203D78702FD767D7A52
:10027000758F136787002394E70293070004230D0B
:10028000F0008547A307F1009304F00F3704100036
:10029000854B7D1A856A1C4C858BA1CB8347F10069
:1002A00093F7F70FA1EF8349A0011389A4001379F5
:1002B000F90F835784024E85B3F747012314F402E4
:1002C0005D3D49454D3D26857D3583578402138725
:1002D0001400B3E757012314F40244C89374F70FD2
:1002E000E39924FD1C4C858BD5FB8347F10093F7E4
:1002F000F70FD5F36D3BA307710171BF4533A3071A
:04030000010055B7EC
:0403040000000000F5
:0400000310000000E9
:00000001FF
