:020000021000EC
:100000000B6000066DA81300000013000000010043
:100010009302000003A50200630805000145930256
:10002000000023A0A20051A805459302000023A0D0
:10003000A200197106C00AC20EC412C616C81ACA96
:100040001ECC22CE26D02AD22ED432D636D83ADAB8
:100050003EDC42DEC6C0CAC2CEC4D2C6D6C8DACAE8
:10006000DECCE2CEE6D0EAD2EED4F2D6F6D8FADA98
:10007000FEDC0BC50000EF00E01582401241A241FA
:100080003242C2425243E243724482541255A25554
:100090003256C2565257E257725886481649A649F8
:1000A000364AC64A564BE64B764C865C165DA65DD4
:1000B000365EC65E565FE65F09610B000004930082
:1000C00000009301000013020000930200001303DC
:1000D00000009303000013040000930400001305C4
:1000E00000009305000013060000930600001307AC
:1000F0000000930700001308000093080000130994
:10010000000093090000130A0000930A0000130B7B
:100110000000930B0000130C0000930C0000130D63
:100120000000930D0000130E0000930E0000130F4B
:100130000000930F0000170500001305A516930596
:1001400000001306400063D8C500144194C1110596
:100150009105E3CCC5FE130540009305C00063572D
:10016000B500232005001105E34DB5FE5D2001A07B
:1001700000000000000000000000B7071000C8D316
:10018000370710005C438D83858BEDDF4853137573
:10019000F50F8280411106C622C426C23704100022
:1001A000835784027D777D17F98F2314F402AA8484
:1001B00003459000D9374945C93726857D3F835788
:1001C00084020567D98F2314F402B240224492447A
:1001D000410182809377050299C7B7071000130782
:1001E0000002D8CB82809377050499C7B707100027
:1001F00013070004D8CB82809377050899C7B70707
:10020000100013070008D8CB8280B7071000C8CBB6
:100210008280411106C622C426C24AC0B70410001B
:1002200083D7840205697D77B3E727012394F4021D
:1002300083D784021305000437440200F98F93E743
:1002400057002394F40283C7040013070004130427
:10025000E482DD9B2380F400A304E00083D78402C2
:100260007D777D17F98F2394F402013F01453137E3
:100270000145213783D78402B3E727012394F40291
:100280001305F00F013FA28763840700FD17EDBF40
:1002900001450937A28763840700FD17EDBFCDB77D
:0402A000000000005A
:0400000310000000E9
:00000001FF
