:10000000B1A801001300000013000000130000005D
:10001000B7021000938242011303E00E23A0620096
:100020009302000003A50200630805000145930246
:10003000000023A0A20009A805459302000023A008
:10004000A2000BC500001D28B702100093824201D8
:100050001303F00F23A062000B0000040B600006E6
:10006000B7021000938242011303A00A23A062008A
:1000700001459302000023A0A20001A0411106C681
:100080009302000233735500639AA200B702100076
:10009000938242011303000223A062009302000432
:1000A00033735500639AA200B70210009382420195
:1000B0001303000423A06200930200083373550069
:1000C000639AA200B7021000938242011303000852
:1000D00023A06200B24041018280000000000000C5
:0400E000000000001C
:00000001FF
