:1000000091A801001300000013000000130000007D
:10001000B70210001303E00E23A062009302000059
:1000200003A502006308050001459302000023A018
:10003000A20009A805459302000023A0A2000BC559
:1000400000003D20B70210001303F00F23A0620050
:100050000B0000040B600006B70210001303A00A97
:1000600023A0620001459302000023A0A20001A08A
:10007000411106C693020002337355006398A20033
:10008000B70210001303000223A0620093020004D1
:10009000337355006398A200B702100013030004E5
:1000A00023A0620093020008337355006398A200F6
:1000B000B70210001303000823A06200B240410100
:1000C000828000000000000000000000000000002E
:0400D000000000002C
:00000001FF
