:020000021000EC
:100000000B6000066DA81300000013000000010043
:100010009302000003A50200630805000145930256
:10002000000023A0A20051A805459302000023A0D0
:10003000A200197106C00AC20EC412C616C81ACA96
:100040001ECC22CE26D02AD22ED432D636D83ADAB8
:100050003EDC42DEC6C0CAC2CEC4D2C6D6C8DACAE8
:10006000DECCE2CEE6D0EAD2EED4F2D6F6D8FADA98
:10007000FEDC0BC50000EF00802282401241A2414D
:100080003242C2425243E243724482541255A25554
:100090003256C2565257E257725886481649A649F8
:1000A000364AC64A564BE64B764C865C165DA65DD4
:1000B000365EC65E565FE65F09610B000004930082
:1000C00000009301000013020000930200001303DC
:1000D00000009303000013040000930400001305C4
:1000E00000009305000013060000930600001307AC
:1000F0000000930700001308000093080000130994
:10010000000093090000130A0000930A0000130B7B
:100110000000930B0000130C0000930C0000130D63
:100120000000930D0000130E0000930E0000130F4B
:100130000000930F0000170500001305E53193053B
:1001400000001306400063D8C500144194C1110596
:100150009105E3CCC5FE13054000930540026357AB
:10016000B500232005001105E34DB5FE712A01A05D
:1001700000000000000000000000B7071000D44796
:100180008347C0001306000193F7F70F938517000C
:1001900093F5F50F2306B00093F6F60FB297238080
:1001A000D7008347C0009D4663F4F6002306000095
:1001B00083479001850793F7F70FA30CF000828027
:1001C0008347D0009D4663E4F6048347E00093052F
:1001D000400093F7F70F138517001375F50F2307EA
:1001E000A000AE9783C70700B705100093F7F70F7D
:1001F0009CC58347E00063F4F600230700008347B3
:10020000D000850793F7F70FA306F0008280370729
:10021000100083470700F59B2300F7008280834787
:10022000D00093F7F70FE5DFB70610009C428583F7
:10023000858B99EB88C6370710008347070093E743
:1002400027002300F700828083C706001D48F59B26
:100250002380F6008347F0009306400093F7F70FE2
:100260009385170093F5F50FA307B000B697238089
:10027000A7008347F0006374F800A30700008347DA
:10028000D000FD1793F7F70FA306F0003707100013
:100290008347070093E727002300F7008280370792
:1002A00010001C438583858B9DEB370710001C4392
:1002B000858B95EF9377050299C7B7071000130751
:1002C0000002D8CB8280937705048DEB1375050867
:1002D00011C5B707100013070008D8CB8280584318
:1002E0000583058BE313F7FC0323000202835843C5
:1002F000058BE311F7FC0323C0010283B70710004D
:1003000013070004D8CB8280397126DAB7041000B5
:1003100083C7040006DE22DC4AD84ED65AD05ECE11
:1003200052D456D2F99B2380F400B707010093877B
:10033000A717232EF00083C70400F59B2380F40049
:10034000B70701009387071C2320F002930720685A
:100350009CC8A3070000230700002147A306E00074
:1003600023060000230C0000A30C000083C7040038
:100370001305A00AB709100093E717002380F400C3
:10038000793D1305B005613D1305C00C493D930748
:100390007007DCC8930400018D4B1D498347900111
:1003A00093F7F70FE5DF8347900193F7F70F23AA41
:1003B000F90083479001E3F3FBFE8347900193F735
:1003C000F70FD1C3938AF7FF93FAFA0F130AC1000C
:1003D0009307D100BE9A52878347900193F7F70F96
:1003E000E5DF8347800193F7F70F9386170093F6B5
:1003F000F60F230CD000A69783C607008347800121
:1004000093F6F60F6374F900230C000083C709000C
:100410000507F99B2380F90083479001FD1793F7A7
:10042000F70FA30CF00083C7090093E717002380A0
:10043000F900A30FD7FEE31157FB03450A00050A95
:10044000F93BE31C5AFF8347900193F7F70F23AA68
:04045000F900A9B74F
:0404540000000000A4
:0400000310000000E9
:00000001FF
