:100000000B60000661A8130000001300000001004F
:10001000197106C00AC20EC412C616C81ACA1ECC6E
:1000200022CE26D02AD22ED432D636D83ADA3EDCA8
:1000300042DEC6C0CAC2CEC4D2C6D6C8DACADECC78
:10004000E2CEE6D0EAD2EED4F2D6F6D8FADAFEDC88
:100050000BC50000EF00201082401241A241324245
:10006000C2425243E243724482541255A255325660
:10007000C2565257E257725886481649A649364A20
:10008000C64A564BE64B764C865C165DA65D365EE0
:10009000C65E565FE65F09610B0000049300000036
:1000A00093010000130200009302000013030000FC
:1000B00093030000130400009304000013050000E4
:1000C00093050000130600009306000013070000CC
:1000D00093070000130800009308000013090000B4
:1000E00093090000130A0000930A0000130B00009C
:1000F000930B0000130C0000930C0000130D000084
:10010000930D0000130E0000930E0000130F00006B
:10011000930F0000170500001305050E930500005E
:100120001306000063D8C500144194C11105910560
:10013000E3CCC5FE13050000930500006357B5002E
:10014000232005001105E34DB5FEA92801A00000FC
:10015000000000000000011122CE00102326A4FEA2
:100160008327C4FE93F7070291C7B7071000130750
:10017000000298C38327C4FE93F7070491C7B7070B
:1001800010001307000498C38327C4FE93F70708E1
:1001900091C7B70710001307000898C30100724405
:1001A00005618280011122CE0010B7071000C1073F
:1001B0001307206898C39307B0FAA307F4FEB707A4
:1001C0001000E1079C43858BFDDBB7071000B107EA
:1001D0009C432307F4FE0100B7071000E1079C438E
:1001E000898BFDDBB7071000A1070347E4FE98C326
:0401F000F9B700005B
:00000001FF
