:020000021000EC
:100000000B6000066DA81300000013000000010043
:10001000197106C00AC20EC412C616C81ACA1ECC6E
:1000200022CE26D02AD22ED432D636D83ADA3EDCA8
:1000300042DEC6C0CAC2CEC4D2C6D6C8DACADECC78
:10004000E2CEE6D0EAD2EED4F2D6F6D8FADAFEDC88
:100050000BC50000EF00602482401241A2413242F1
:10006000C2425243E243724482541255A255325660
:10007000C2565257E257725886481649A649364A20
:10008000C64A564BE64B764C865C165DA65D365EE0
:10009000C65E565FE65F09610B000004411116C69B
:1000A0009302F0FF0BE00206B2424101828041114F
:1000B00016C681420BE00206B242410182809300E3
:1000C00000009301000013020000930200001303DC
:1000D00000009303000013040000930400001305C4
:1000E00000009305000013060000930600001307AC
:1000F0000000930700001308000093080000130994
:10010000000093090000130A0000930A0000130B7B
:100110000000930B0000130C0000930C0000130D63
:100120000000930D0000130E0000930E0000130F4B
:100130000000930F0000170500001305E534930538
:1001400000001306400063D8C500144194C1110596
:100150009105E3CCC5FE13054000930540026357AB
:10016000B500232005001105E34DB5FE752A01A059
:10017000000000000000B7071000D4478347C0000C
:100180001306000193F7F70F9385170093F5F50F0A
:100190002306B00093F6F60FB2972380D70083476B
:1001A000C0009D4663F4F6002306000083479001DB
:1001B000850793F7F70FA30CF00082808347D000E8
:1001C0009D4663E4F6048347E0009305400093F7FF
:1001D000F70F138517001375F50F2307A000AE97CF
:1001E00083C70700B705100093F7F70F9CC5834737
:1001F000E00063F4F600230700008347D000850782
:1002000093F7F70FA306F0008280370710008347AB
:100210000700F59B2300F70082808347D00093F707
:10022000F70FE5DFB70610009C428583858B99EBBD
:1002300088C6370710008347070093E7270023008D
:10024000F700828083C706001D48F59B2380F600D7
:100250008347F0009306400093F7F70F938517004C
:1002600093F5F50FA307B000B6972380A700834747
:10027000F0006374F800A30700008347D000FD1767
:1002800093F7F70FA306F000370710008347070026
:1002900093E727002300F7008280370710001C43F4
:1002A0008583858BA1EF370710001C43858BB9EF41
:1002B000370710001C439183858BA5E33707100097
:1002C0001C439583858B99EB370710001C4399835A
:1002D000858B89EFB7071000C8CB82805443958285
:1002E000858AE393F6FE89475CCB828054439982EA
:1002F000858AE391F6FE8D475CCB82805843058367
:10030000058BE312F7FA0323000202835843058B9F
:10031000E310F7FA0323C001028354439182858AD4
:10032000E39EF6F854CB8280797126D2B704100090
:1003300083C7040006D622D44AD04ECE52CC5AC827
:100340005EC656CAF99B2380F400B7070100938765
:100350006717232EF00083C70400F59B2380F40069
:10036000B70701009387C71B2320F002930720687B
:100370009CC8A3070000230700002147A306E00054
:1003800023060000230C0000A30C000083C7040018
:100390001305A00A93E717002380F40083C7040025
:1003A000916B370A100093E707012380F40083C79D
:1003B00004009D491309000193E707022380F4001C
:1003C00083C70400938B1B8D93E707042380F400FD
:1003D00083C7040093E707F82380F4003D3D13052D
:1003E000B005253D1305C00C0D3D93077007DCC813
:1003F0008347900193F7F70FE5DFDE8763840700FB
:10040000FD17EDBF8347900193F7F70F232AFA00FA
:100410008344900193F4F40FE1DC814A8347900117
:1004200093F7F70FE5DF8347800193F7F70F138703
:1004300017001377F70F230CE000CA9703C50700D6
:10044000834780011375F50F63F4F900230C000056
:1004500083470A00850A93FAFA0FF99B2300FA00F2
:1004600083479001FD1793F7F70FA30CF000834724
:100470000A0093E717002300FA004533E38A54F794
:0404800071BF000048
:040484000000000074
:0400000310000000E9
:00000001FF
