:100000000B60000661A8130000001300000001004F
:10001000197106C00AC20EC412C616C81ACA1ECC6E
:1000200022CE26D02AD22ED432D636D83ADA3EDCA8
:1000300042DEC6C0CAC2CEC4D2C6D6C8DACADECC78
:10004000E2CEE6D0EAD2EED4F2D6F6D8FADAFEDC88
:100050000BC50000EF00802682401241A2413242CF
:10006000C2425243E243724482541255A255325660
:10007000C2565257E257725886481649A649364A20
:10008000C64A564BE64B764C865C165DA65D365EE0
:10009000C65E565FE65F09610B0000049300000036
:1000A00093010000130200009302000013030000FC
:1000B00093030000130400009304000013050000E4
:1000C00093050000130600009306000013070000CC
:1000D00093070000130800009308000013090000B4
:1000E00093090000130A0000930A0000130B00009C
:1000F000930B0000130C0000930C0000130D000084
:10010000930D0000130E0000930E0000130F00006B
:10011000930F0000170500001305451E930500000E
:100120001306400063D8C500144194C11105910520
:10013000E3CCC5FE13054000930580026357B5006C
:10014000232005001105E34DB5FE552201A0000056
:10015000000000000000B7071000D447834750009C
:100160001306C00093F7F70F9385170093F5F50F6B
:10017000A302B00093F6F60FB2972380D70083470F
:1001800050009D4663F4F600A30200008347800000
:10019000850793F7F70F2304F000828083478001DF
:1001A0009D4663E4F604834760009305000293F7DD
:1001B000F70F138517001375F50F2303A000AE97F3
:1001C00083C70700B705100093F7F70F9CC5834757
:1001D000600063F4F6002303000083478001850775
:1001E00093F7F70F230CF00082800327000083476A
:1001F0000700F59B2300F700828083270000B706E5
:1002000000009386661503C70700799B2380E700EB
:1002100003C70700232AD000759B2380E700370718
:1002200000001307C719232EE000370710009306BC
:10023000206814CBA303000023030000A146230C75
:10024000D000A3020000230200002304000003C723
:100250000700136717002380E700828003458001B1
:100260001375F50F3335A0008280B7071000D4470F
:10027000834750001306C00093F7F70F93851700CC
:1002800093F5F50FA302B00093F6F60FB297238013
:10029000D700834750009D4663F4F600A302000098
:1002A00083478000850793F7F70F2304F0008280CF
:1002B000232EA0008280232AA0008280937705024B
:1002C00091C7B70710001307000298C3937705047E
:1002D00091C7B70710001307000498C313750508EA
:1002E00011C5B70710001307000898C38280411199
:0802F00006C6213701A0000041
:0402F80014001000DE
:00000001FF
