:020000021000EC
:100000000B6000066DA81300000013000000010043
:100010009302000003A50200630805000145930256
:10002000000023A0A20051A805459302000023A0D0
:10003000A200197106C00AC20EC412C616C81ACA96
:100040001ECC22CE26D02AD22ED432D636D83ADAB8
:100050003EDC42DEC6C0CAC2CEC4D2C6D6C8DACAE8
:10006000DECCE2CEE6D0EAD2EED4F2D6F6D8FADA98
:10007000FEDC0BC50000EF00802F82401241A24140
:100080003242C2425243E243724482541255A25554
:100090003256C2565257E257725886481649A649F8
:1000A000364AC64A564BE64B764C865C165DA65DD4
:1000B000365EC65E565FE65F09610B000004930082
:1000C00000009301000013020000930200001303DC
:1000D00000009303000013040000930400001305C4
:1000E00000009305000013060000930600001307AC
:1000F0000000930700001308000093080000130994
:10010000000093090000130A0000930A0000130B7B
:100110000000930B0000130C0000930C0000130D63
:100120000000930D0000130E0000930E0000130F4B
:100130000000930F0000170500001305E534930538
:1001400000001306400063D8C500144194C1110596
:100150009105E3CCC5FE130540009305800263576B
:10016000B500232005001105E34DB5FEB52401A01F
:1001700000000000000000000000B7071000D44796
:100180008347C0011306400193F7F70F93851700CB
:1001900093F5F50F230EB00093F6F60FB297238078
:1001A000D7008347C0019D4663F4F600230E00008C
:1001B0008347D001850793F7F70FA30EF0008280E5
:1001C0008347E0019D4663E4F604834700019305FD
:1001D000800093F7F70F138517001375F50F2308A9
:1001E000A000AE9783C70700B705100093F7F70F7D
:1001F0009CC58347000163F4F60023080000834791
:10020000E001850793F7F70F230FF000828037078F
:10021000100083470700F59B2300F7008280834787
:10022000E00193F7F70FE5DFB70610009C428583E6
:10023000858B99EB88C6370710008347070093E743
:1002400027002300F700828083C706001D48F59B26
:100250002380F600834750009306800093F7F70F42
:100260009385170093F5F50FA302B000B69723808E
:10027000A700834750006374F800A302000083477F
:10028000E001FD1793F7F70F230FF0003707100079
:100290008347070093E727002300F7008280834706
:1002A000D00193F7F70FE5DF8347400013064001C5
:1002B00093F7F70F9385170093F5F50FB297230285
:1002C000B00003C50700834740001D461375F50FB6
:1002D0006374F60023020000B706100083C706000F
:1002E000F99B2380F6008347D001FD1793F7F70FA2
:1002F000A30EF00083C7060093E717002380F600E3
:1003000082800345D0011375F50F3335A00082803C
:10031000B707100003C70700799B2380E700370762
:1003200001001307A7172320E00203C70700759BEE
:100330002380E700370701001307071C2322E00290
:100340001307206898CBA302000023080000A146F1
:10035000230FD000230E000023020000A30E000094
:1003600003C70700136717002380E7008280370761
:1003700010001C438583858B9DEB370710001C43C1
:10038000858B95EF9377050299C7B7071000130780
:100390000002D8CB8280937705048DEB1375050896
:1003A00011C5B707100013070008D8CB8280584347
:1003B0000583058BE313F7FC0323400202835843B4
:1003C000058BE311F7FC032300020283B70710003B
:1003D00013070004D8CB8280797106D626D24AD082
:1003E0004ECE52CC56CA22D425371305A00A053D5D
:1003F0001305B00B2D351305C00C15358347E001EF
:1004000037071000056993F7F70F5CCBB7041000AE
:10041000130A70071309A96B930980081384440118
:1004200023204401CA8763840700FD17EDBF232002
:100430003401C13D75D58347D00193F7F70FDCC870
:10044000B93D2306A1008347C10093F7F70FDCC82D
:10045000B935A306A1008347D10093F7F70FDCC895
:100460003D3D2307A1008347E10093F7F70FDCC868
:100470000345C1006D330345D10055330345E10009
:04048000793B69BF9C
:040484000000000074
:0400000310000000E9
:00000001FF
