:020000021000EC
:100000000B6000066DA81300000013000000010043
:10001000197106C00AC20EC412C616C81ACA1ECC6E
:1000200022CE26D02AD22ED432D636D83ADA3EDCA8
:1000300042DEC6C0CAC2CEC4D2C6D6C8DACADECC78
:10004000E2CEE6D0EAD2EED4F2D6F6D8FADAFEDC88
:100050000BC50000EF00402482401241A241324211
:10006000C2425243E243724482541255A255325660
:10007000C2565257E257725886481649A649364A20
:10008000C64A564BE64B764C865C165DA65D365EE0
:10009000C65E565FE65F09610B000004411116C69B
:1000A0009302F0FF0BE00206B2424101828041114F
:1000B00016C681420BE00206B242410182809300E3
:1000C00000009301000013020000930200001303DC
:1000D00000009303000013040000930400001305C4
:1000E00000009305000013060000930600001307AC
:1000F0000000930700001308000093080000130994
:10010000000093090000130A0000930A0000130B7B
:100110000000930B0000130C0000930C0000130D63
:100120000000930D0000130E0000930E0000130F4B
:100130000000930F0000170500001305651E9305CE
:1001400000001306400063D8C500144194C1110596
:100150009105E3CCC5FE130540009305C00063572D
:10016000B500232005001105E34DB5FE992201A03D
:10017000000000000000011106CE22CC0010232652
:10018000A4FEB7071000938707020327C4FE98C395
:10019000B707010013854728D128F2406244056162
:1001A0008280411122C60008C16783A7873103C737
:1001B0000700136727002380E70032444101828053
:1001C000411122C60008C16783A7873103C7070012
:1001D0006D9B2380E700C16783A7873103C70700B2
:1001E000759B2380E700324441018280411106C69D
:1001F00022C40008C16783A7873103C70700799B22
:100200002380E7008327400081C78327400082972F
:10021000B240224441018280011122CE00102326E7
:10022000A4FEB7071000F1070327C4FE98C3724469
:1002300005618280411122C60008C16783A787310A
:1002400003C70700799B2380E70032444101828085
:10025000411122C60008C16783A787319C43858B63
:1002600093F7F70F3E85324441018280011122CE7F
:1002700000102326A4FE0327C4FE2322E0007244BC
:1002800005618280411122C600083244410182800A
:1002900005472304E0008280370710001C43898350
:1002A000858B91E3828058430983058BE31CF7FE1D
:1002B00035BF4111314506C67D3D4175B13F37051A
:1002C0000100130505295D37E93D23040000B70748
:1002D000100003C607000147B7051000136646006B
:1002E0002380C70003C60700136606F82380C700F3
:1002F000834780001306170093F7F70FF5DB2304FD
:100300000000D8C9834780001377F60F1306170043
:0C03100093F7F70FF1DFE5B720001000B5
:04031C0000000000DD
:0400000310000000E9
:00000001FF
