:020000021000EC
:100000000B6000066DA81300000013000000010043
:100010009302000003A50200630805000145930256
:10002000000023A0A20051A805459302000023A0D0
:10003000A200197106C00AC20EC412C616C81ACA96
:100040001ECC22CE26D02AD22ED432D636D83ADAB8
:100050003EDC42DEC6C0CAC2CEC4D2C6D6C8DACAE8
:10006000DECCE2CEE6D0EAD2EED4F2D6F6D8FADA98
:10007000FEDC0BC50000EF00A02282401241A2412D
:100080003242C2425243E243724482541255A25554
:100090003256C2565257E257725886481649A649F8
:1000A000364AC64A564BE64B764C865C165DA65DD4
:1000B000365EC65E565FE65F09610B000004930082
:1000C00000009301000013020000930200001303DC
:1000D00000009303000013040000930400001305C4
:1000E00000009305000013060000930600001307AC
:1000F0000000930700001308000093080000130994
:10010000000093090000130A0000930A0000130B7B
:100110000000930B0000130C0000930C0000130D63
:100120000000930D0000130E0000930E0000130F4B
:100130000000930F0000170500001305251F93050D
:1001400000001306000163D8C500144194C11105D5
:100150009105E3CCC5FE13050001930580016357AB
:10016000B500232005001105E34DB5FE892A01A045
:1001700000000000000000000000011106CE22CCAB
:1001800000102326A4FEB707100093870702032759
:10019000C4FE98C3B70701001385A728D128010022
:1001A000F240624405618280411122C60008832723
:1001B000400003C70700136727002380E700010002
:1001C000324441018280411122C600088327400049
:1001D00003C707006D9B2380E7008327400003C708
:1001E0000700759B2380E7000100324441018280B3
:1001F000411106C622C400088327400003C7070038
:10020000799B2380E7008327000181C783270001B2
:1002100082970100B240224441018280011122CE26
:1002200000102326A4FEB7071000F1070327C4FE21
:1002300098C30100724405618280411122C6000802
:100240008327400003C70700799B2380E700010054
:10025000324441018280411122C6000883274000B8
:100260009C43858B93F7F70F3E8532444101828092
:10027000011122CE00102326A4FE0327C4FE23284A
:10028000E0000100724405618280411122C600082D
:1002900001003244410182800547230AE000828048
:1002A0008327C0009C438983858B91E38280032749
:1002B000800018430983058BE31AF7FE15BF01116F
:1002C000114506CE22CC4AC84EC626CA7D35130536
:1002D00000FCA9373705010013058529513FE93591
:1002E0008326C000230A000083C706000147B70920
:1002F000100093E747002380F6000D498347400133
:1003000093F7F70FE5DF230A00009304170093F437
:10031000F40F23AAE9006395240175352687F9BFF8
:0803200061352687E1BF0000F2
:100328000000000020001000040010000000100071
:0400000310000000E9
:00000001FF
