:020000021000EC
:100000000B6000066DA81300000013000000010043
:100010009302000003A50200630805000145930256
:10002000000023A0A20051A805459302000023A0D0
:10003000A200197106C00AC20EC412C616C81ACA96
:100040001ECC22CE26D02AD22ED432D636D83ADAB8
:100050003EDC42DEC6C0CAC2CEC4D2C6D6C8DACAE8
:10006000DECCE2CEE6D0EAD2EED4F2D6F6D8FADA98
:10007000FEDC0BC50000EF00201882401241A241B7
:100080003242C2425243E243724482541255A25554
:100090003256C2565257E257725886481649A649F8
:1000A000364AC64A564BE64B764C865C165DA65DD4
:1000B000365EC65E565FE65F09610B000004930082
:1000C00000009301000013020000930200001303DC
:1000D00000009303000013040000930400001305C4
:1000E00000009305000013060000930600001307AC
:1000F0000000930700001308000093080000130994
:10010000000093090000130A0000930A0000130B7B
:100110000000930B0000130C0000930C0000130D63
:100120000000930D0000130E0000930E0000130F4B
:100130000000930F00001705000013052513930519
:1001400000001306400063D8C500144194C1110596
:100150009105E3CCC5FE130540009305C00063572D
:10016000B500232005001105E34DB5FE5D2001A07B
:1001700000000000000000000000B7071000314739
:1001800098D3B7070100938707192324F0008280D2
:100190008280B70710007D77D8CF8280B707010033
:1001A0009387A71A2324F000828005472302E000EA
:1001B00082803707100083470702F99B2300F7026C
:1001C000032380006303030002838280B7071000CB
:1001D00003C707026D9B2380E70203C70702759BD5
:1001E0002380E7028280370710008347070293E7E6
:1001F00027002300F7028280370710001C43898301
:10020000858B91E3828058430983058BE31CF7FEBD
:100210004DB7011106CE22CC26CA4AC84EC6B13F00
:100220008D3FAD3FC93737071000230200008347D9
:1002300007009304000FB709100093E7470023005D
:10024000F7001309500F26878347400093F7F70FF5
:10025000E5DF23020000850493F4F40F23AAE900EC
:08026000E39324FFA537C5B7A5
:040268000000000092
:0400000310000000E9
:00000001FF
